{
  "contractName": "Kyc",
  "abi": [
    {
      "inputs": [],
      "stateMutability": "nonpayable",
      "type": "constructor"
    },
    {
      "anonymous": false,
      "inputs": [
        {
          "indexed": true,
          "internalType": "address",
          "name": "customerAddress",
          "type": "address"
        },
        {
          "indexed": false,
          "internalType": "bool",
          "name": "kycStatus",
          "type": "bool"
        }
      ],
      "name": "KYCRegistered",
      "type": "event"
    },
    {
      "anonymous": false,
      "inputs": [
        {
          "indexed": false,
          "internalType": "uint256",
          "name": "reqid",
          "type": "uint256"
        },
        {
          "indexed": false,
          "internalType": "address",
          "name": "custAddress",
          "type": "address"
        },
        {
          "indexed": false,
          "internalType": "address",
          "name": "ethAddress",
          "type": "address"
        },
        {
          "indexed": false,
          "internalType": "bool",
          "name": "isAllowed",
          "type": "bool"
        }
      ],
      "name": "accessGiven",
      "type": "event"
    },
    {
      "anonymous": false,
      "inputs": [
        {
          "indexed": false,
          "internalType": "address",
          "name": "custAddress",
          "type": "address"
        },
        {
          "indexed": false,
          "internalType": "address",
          "name": "ethAddress",
          "type": "address"
        }
      ],
      "name": "accessRevoked",
      "type": "event"
    },
    {
      "anonymous": false,
      "inputs": [
        {
          "indexed": false,
          "internalType": "address",
          "name": "custAddress",
          "type": "address"
        },
        {
          "indexed": false,
          "internalType": "bool",
          "name": "kycStatus",
          "type": "bool"
        }
      ],
      "name": "customerAdded",
      "type": "event"
    },
    {
      "anonymous": false,
      "inputs": [
        {
          "indexed": false,
          "internalType": "address",
          "name": "custAddress",
          "type": "address"
        },
        {
          "indexed": false,
          "internalType": "bool",
          "name": "kycStatus",
          "type": "bool"
        }
      ],
      "name": "customerUpdated",
      "type": "event"
    },
    {
      "anonymous": false,
      "inputs": [
        {
          "indexed": false,
          "internalType": "address",
          "name": "custAddress",
          "type": "address"
        },
        {
          "indexed": false,
          "internalType": "address",
          "name": "ethAddress",
          "type": "address"
        }
      ],
      "name": "kycRemoved",
      "type": "event"
    },
    {
      "anonymous": false,
      "inputs": [
        {
          "indexed": false,
          "internalType": "string",
          "name": "name",
          "type": "string"
        },
        {
          "indexed": false,
          "internalType": "address",
          "name": "ethAddress",
          "type": "address"
        }
      ],
      "name": "orgAdded",
      "type": "event"
    },
    {
      "anonymous": false,
      "inputs": [
        {
          "indexed": false,
          "internalType": "address",
          "name": "ethAddress",
          "type": "address"
        }
      ],
      "name": "orgRemoved",
      "type": "event"
    },
    {
      "anonymous": false,
      "inputs": [
        {
          "indexed": false,
          "internalType": "uint256",
          "name": "reqid",
          "type": "uint256"
        },
        {
          "indexed": false,
          "internalType": "address",
          "name": "ethAddress",
          "type": "address"
        },
        {
          "indexed": false,
          "internalType": "address",
          "name": "custAddress",
          "type": "address"
        },
        {
          "indexed": false,
          "internalType": "bool",
          "name": "isAllowed",
          "type": "bool"
        }
      ],
      "name": "requestAdded",
      "type": "event"
    },
    {
      "anonymous": false,
      "inputs": [
        {
          "indexed": false,
          "internalType": "uint256",
          "name": "reqid",
          "type": "uint256"
        },
        {
          "indexed": false,
          "internalType": "address",
          "name": "ethAddress",
          "type": "address"
        }
      ],
      "name": "requestRemoved",
      "type": "event"
    },
    {
      "inputs": [],
      "name": "admin",
      "outputs": [
        {
          "internalType": "address",
          "name": "",
          "type": "address"
        }
      ],
      "stateMutability": "view",
      "type": "function",
      "constant": true
    },
    {
      "inputs": [
        {
          "internalType": "string",
          "name": "_name",
          "type": "string"
        },
        {
          "internalType": "address",
          "name": "_ethAddress",
          "type": "address"
        }
      ],
      "name": "addOrg",
      "outputs": [
        {
          "internalType": "bool",
          "name": "",
          "type": "bool"
        }
      ],
      "stateMutability": "nonpayable",
      "type": "function"
    },
    {
      "inputs": [
        {
          "internalType": "address",
          "name": "_ethAddress",
          "type": "address"
        }
      ],
      "name": "removeOrg",
      "outputs": [
        {
          "internalType": "bool",
          "name": "",
          "type": "bool"
        }
      ],
      "stateMutability": "nonpayable",
      "type": "function"
    },
    {
      "inputs": [
        {
          "internalType": "address",
          "name": "_ethAddress",
          "type": "address"
        }
      ],
      "name": "viewOrg",
      "outputs": [
        {
          "components": [
            {
              "internalType": "string",
              "name": "name",
              "type": "string"
            },
            {
              "internalType": "address",
              "name": "ethAddress",
              "type": "address"
            }
          ],
          "internalType": "struct Kyc.Organization",
          "name": "",
          "type": "tuple"
        }
      ],
      "stateMutability": "view",
      "type": "function",
      "constant": true
    },
    {
      "inputs": [],
      "name": "getYourOrgDetail",
      "outputs": [
        {
          "components": [
            {
              "internalType": "string",
              "name": "name",
              "type": "string"
            },
            {
              "internalType": "address",
              "name": "ethAddress",
              "type": "address"
            }
          ],
          "internalType": "struct Kyc.Organization",
          "name": "",
          "type": "tuple"
        }
      ],
      "stateMutability": "view",
      "type": "function",
      "constant": true
    },
    {
      "inputs": [],
      "name": "validOrg",
      "outputs": [
        {
          "internalType": "bool",
          "name": "",
          "type": "bool"
        }
      ],
      "stateMutability": "view",
      "type": "function",
      "constant": true
    },
    {
      "inputs": [],
      "name": "validAdmin",
      "outputs": [
        {
          "internalType": "bool",
          "name": "",
          "type": "bool"
        }
      ],
      "stateMutability": "view",
      "type": "function",
      "constant": true
    },
    {
      "inputs": [],
      "name": "validCust",
      "outputs": [
        {
          "internalType": "bool",
          "name": "",
          "type": "bool"
        }
      ],
      "stateMutability": "view",
      "type": "function",
      "constant": true
    },
    {
      "inputs": [
        {
          "internalType": "address",
          "name": "_custaddress",
          "type": "address"
        },
        {
          "internalType": "string",
          "name": "_jsonHash",
          "type": "string"
        },
        {
          "internalType": "string",
          "name": "_photohash",
          "type": "string"
        },
        {
          "internalType": "string",
          "name": "_citizenship_front_hash",
          "type": "string"
        },
        {
          "internalType": "string",
          "name": "_citizenship_back_hash",
          "type": "string"
        },
        {
          "internalType": "bool",
          "name": "_kycStatus",
          "type": "bool"
        },
        {
          "internalType": "uint256",
          "name": "_d",
          "type": "uint256"
        },
        {
          "internalType": "uint256",
          "name": "_n",
          "type": "uint256"
        }
      ],
      "name": "registerKYC",
      "outputs": [
        {
          "internalType": "bool",
          "name": "",
          "type": "bool"
        }
      ],
      "stateMutability": "nonpayable",
      "type": "function"
    },
    {
      "inputs": [
        {
          "internalType": "address",
          "name": "_custaddress",
          "type": "address"
        }
      ],
      "name": "viewKYC",
      "outputs": [
        {
          "internalType": "bool",
          "name": "",
          "type": "bool"
        },
        {
          "internalType": "string",
          "name": "",
          "type": "string"
        },
        {
          "internalType": "string",
          "name": "",
          "type": "string"
        },
        {
          "internalType": "string",
          "name": "",
          "type": "string"
        },
        {
          "internalType": "string",
          "name": "",
          "type": "string"
        },
        {
          "internalType": "uint256",
          "name": "",
          "type": "uint256"
        },
        {
          "internalType": "uint256",
          "name": "",
          "type": "uint256"
        }
      ],
      "stateMutability": "view",
      "type": "function",
      "constant": true
    },
    {
      "inputs": [],
      "name": "viewYourKYC",
      "outputs": [
        {
          "components": [
            {
              "internalType": "address",
              "name": "custAddress",
              "type": "address"
            },
            {
              "internalType": "string",
              "name": "jsonHash",
              "type": "string"
            },
            {
              "internalType": "string",
              "name": "photoHash",
              "type": "string"
            },
            {
              "internalType": "string",
              "name": "citizenship_front_hash",
              "type": "string"
            },
            {
              "internalType": "string",
              "name": "citizenship_back_hash",
              "type": "string"
            },
            {
              "internalType": "uint256",
              "name": "d",
              "type": "uint256"
            },
            {
              "internalType": "uint256",
              "name": "n",
              "type": "uint256"
            },
            {
              "internalType": "address[]",
              "name": "organization",
              "type": "address[]"
            },
            {
              "internalType": "bool",
              "name": "kycStatus",
              "type": "bool"
            }
          ],
          "internalType": "struct Kyc.Customer",
          "name": "",
          "type": "tuple"
        }
      ],
      "stateMutability": "view",
      "type": "function",
      "constant": true
    },
    {
      "inputs": [],
      "name": "viewOrgWithAccess",
      "outputs": [
        {
          "internalType": "address[]",
          "name": "",
          "type": "address[]"
        }
      ],
      "stateMutability": "view",
      "type": "function",
      "constant": true
    },
    {
      "inputs": [],
      "name": "viewRequestCust",
      "outputs": [
        {
          "components": [
            {
              "internalType": "uint256",
              "name": "req_count",
              "type": "uint256"
            },
            {
              "internalType": "address",
              "name": "Address",
              "type": "address"
            }
          ],
          "internalType": "struct Kyc.kycRequestList[]",
          "name": "",
          "type": "tuple[]"
        }
      ],
      "stateMutability": "view",
      "type": "function",
      "constant": true
    },
    {
      "inputs": [
        {
          "internalType": "address",
          "name": "_custaddress",
          "type": "address"
        },
        {
          "internalType": "string",
          "name": "_jsonHash",
          "type": "string"
        },
        {
          "internalType": "string",
          "name": "_photohash",
          "type": "string"
        },
        {
          "internalType": "string",
          "name": "_citizenship_front_hash",
          "type": "string"
        },
        {
          "internalType": "string",
          "name": "_citizenship_back_hash",
          "type": "string"
        },
        {
          "internalType": "bool",
          "name": "_kycStatus",
          "type": "bool"
        },
        {
          "internalType": "uint256",
          "name": "_d",
          "type": "uint256"
        },
        {
          "internalType": "uint256",
          "name": "_n",
          "type": "uint256"
        }
      ],
      "name": "updateKYC",
      "outputs": [
        {
          "internalType": "bool",
          "name": "",
          "type": "bool"
        }
      ],
      "stateMutability": "nonpayable",
      "type": "function"
    },
    {
      "inputs": [
        {
          "internalType": "address",
          "name": "_custaddress",
          "type": "address"
        }
      ],
      "name": "requestKYC",
      "outputs": [
        {
          "internalType": "bool",
          "name": "",
          "type": "bool"
        }
      ],
      "stateMutability": "nonpayable",
      "type": "function"
    },
    {
      "inputs": [
        {
          "internalType": "uint256",
          "name": "_reqcount",
          "type": "uint256"
        }
      ],
      "name": "deleteRequestOrg",
      "outputs": [
        {
          "internalType": "bool",
          "name": "",
          "type": "bool"
        }
      ],
      "stateMutability": "nonpayable",
      "type": "function"
    },
    {
      "inputs": [
        {
          "internalType": "uint256",
          "name": "_reqcount",
          "type": "uint256"
        },
        {
          "internalType": "address",
          "name": "_ethAddress",
          "type": "address"
        }
      ],
      "name": "deleteRequestCust",
      "outputs": [],
      "stateMutability": "nonpayable",
      "type": "function"
    },
    {
      "inputs": [],
      "name": "listRequest",
      "outputs": [
        {
          "components": [
            {
              "internalType": "uint256",
              "name": "req_count",
              "type": "uint256"
            },
            {
              "internalType": "address",
              "name": "Address",
              "type": "address"
            }
          ],
          "internalType": "struct Kyc.kycRequestList[]",
          "name": "",
          "type": "tuple[]"
        }
      ],
      "stateMutability": "view",
      "type": "function",
      "constant": true
    },
    {
      "inputs": [
        {
          "internalType": "uint256",
          "name": "_reqcount",
          "type": "uint256"
        },
        {
          "internalType": "address",
          "name": "_ethAddress",
          "type": "address"
        },
        {
          "internalType": "bool",
          "name": "_isAllowed",
          "type": "bool"
        }
      ],
      "name": "giveAccessKYC",
      "outputs": [
        {
          "internalType": "bool",
          "name": "",
          "type": "bool"
        }
      ],
      "stateMutability": "nonpayable",
      "type": "function"
    },
    {
      "inputs": [
        {
          "internalType": "address",
          "name": "_ethAddress",
          "type": "address"
        }
      ],
      "name": "revokeAccessKYC",
      "outputs": [
        {
          "internalType": "bool",
          "name": "",
          "type": "bool"
        }
      ],
      "stateMutability": "nonpayable",
      "type": "function"
    },
    {
      "inputs": [
        {
          "internalType": "address",
          "name": "_custaddress",
          "type": "address"
        }
      ],
      "name": "removeKYC",
      "outputs": [
        {
          "internalType": "bool",
          "name": "",
          "type": "bool"
        }
      ],
      "stateMutability": "nonpayable",
      "type": "function"
    }
  ],
  "bytecode": "0x608060405234801561001057600080fd5b50600080546001600160a01b03191633179055613192806100326000396000f3fe608060405234801561001057600080fd5b50600436106101775760003560e01c8063a1ac9e57116100d8578063ceacabd51161008c578063e1b2dbe811610066578063e1b2dbe8146102ef578063f3a9b588146102f7578063f851a440146102ff57610177565b8063ceacabd5146102ac578063d6bbbf84146102c1578063d9b18f04146102c957610177565b8063b7e4a42d116100bd578063b7e4a42d14610271578063c10cebe614610284578063ca1cbcc21461029757610177565b8063a1ac9e571461024b578063a64266e71461025e57610177565b80634f4b4f781161012f5780637042d70c116101145780637042d70c1461021057806384f702ee1461022557806388c4ce541461023857610177565b80634f4b4f78146101f557806354291824146101fd57610177565b80632a539a22116101605780632a539a22146101b857806332722a25146101cb5780633b2b8abf146101e057610177565b806306e5d4d11461017c578063243f6b58146101a5575b600080fd5b61018f61018a36600461265e565b610314565b60405161019c91906129ac565b60405180910390f35b61018f6101b336600461265e565b6103c9565b61018f6101c63660046127e2565b6104a1565b6101d3610674565b60405161019c9190613033565b6101e861077a565b60405161019c9190612907565b61018f610821565b61018f61020b3660046127a8565b610857565b61022361021e3660046127c0565b610993565b005b61018f61023336600461267f565b610ac4565b6101d361024636600461265e565b610bb9565b61018f61025936600461275c565b610cf6565b61018f61026c36600461267f565b610e2b565b61018f61027f36600461265e565b610f2f565b61018f61029236600461265e565b610ffc565b61029f6111df565b60405161019c9190612954565b6102b461134a565b60405161019c9190612f58565b61018f611676565b6102dc6102d736600461265e565b611692565b60405161019c97969594939291906129b7565b61018f611953565b61029f61197e565b610307611b02565b60405161019c91906128be565b3360008181526001602052604081205490916001600160a01b03909116146103575760405162461bcd60e51b815260040161034e90612a4e565b60405180910390fd5b6103613383611b11565b61037d5760405162461bcd60e51b815260040161034e90612b19565b6103873383611bb9565b7fe88c41c4d37804e10d7ea8c3879578b372d9fabc7fd55f30843786e63b024bc933836040516103b89291906128d2565b60405180910390a15060015b919050565b3360008181526002602052604081206001015490916001600160a01b03909116146104065760405162461bcd60e51b815260040161034e90612e1f565b6001600160a01b03808316600081815260016020526040902054909116146104405760405162461bcd60e51b815260040161034e90612e8d565b61044a8233611b11565b6104665760405162461bcd60e51b815260040161034e90612b19565b6104708233611bb9565b7fd2bb631b9ffa2bf92c1b926be30d35e0753e89189734d361478d148ce3609ecd82336040516103b89291906128d2565b3360008181526001602052604081205490916001600160a01b03909116146104db5760405162461bcd60e51b815260040161034e90612d54565b6001600160a01b038316600090815260036020526040902060020180543391908690811061051957634e487b7160e01b600052603260045260246000fd5b60009182526020909120600160029092020101546001600160a01b0316146105535760405162461bcd60e51b815260040161034e90612aab565b6001600160a01b038316600090815260036020526040902060020180548591908290811061059157634e487b7160e01b600052603260045260246000fd5b906000526020600020906002020160000154146105c05760405162461bcd60e51b815260040161034e90612c78565b60018215151415610660576105d53384611b11565b6106145733600090815260016020818152604083206007018054928301815583529091200180546001600160a01b0319166001600160a01b0385161790555b61061e8484610993565b7fadbe7f03a7f299dc85504c5aa657355c0e4e2f199bae0b27c64e9cc810e699a9843385856040516106539493929190613085565b60405180910390a161066a565b61066a8484610993565b5060019392505050565b61067c612458565b336000818152600260205260409020600101546001600160a01b0316146106b55760405162461bcd60e51b815260040161034e90612e1f565b336000908152600260205260409081902081518083019092528054829082906106dd906130da565b80601f0160208091040260200160405190810160405280929190818152602001828054610709906130da565b80156107565780601f1061072b57610100808354040283529160200191610756565b820191906000526020600020905b81548152906001019060200180831161073957829003601f168201915b5050509183525050600191909101546001600160a01b031660209091015290505b90565b336000818152600160205260409020546060916001600160a01b03909116146107b55760405162461bcd60e51b815260040161034e90612de8565b336000908152600160209081526040918290206007018054835181840281018401909452808452909183018282801561081757602002820191906000526020600020905b81546001600160a01b031681526001909101906020018083116107f9575b5050505050905090565b3360008181526002602052604081206001015490916001600160a01b03909116141561084f57506001610777565b506000610777565b3360008181526002602052604081206001015490916001600160a01b03909116146108945760405162461bcd60e51b815260040161034e90612e1f565b336000818152600360205260409020546001600160a01b0316146108ca5760405162461bcd60e51b815260040161034e90612ec4565b3360009081526003602052604090206002018054839190829081106108ff57634e487b7160e01b600052603260045260246000fd5b9060005260206000209060020201600001541461092e5760405162461bcd60e51b815260040161034e90612ae2565b33600090815260036020526040812060020180548490811061096057634e487b7160e01b600052603260045260246000fd5b60009182526020909120600160029092020101546001600160a01b0316905061098a838233611cdc565b50600192915050565b6001600160a01b03808216600081815260026020526040902060010154909116146109d05760405162461bcd60e51b815260040161034e90612b76565b6001600160a01b0381166000908152600360205260409020600201805433919084908110610a0e57634e487b7160e01b600052603260045260246000fd5b60009182526020909120600160029092020101546001600160a01b031614610a485760405162461bcd60e51b815260040161034e90612aab565b6001600160a01b0381166000908152600360205260409020600201805483919082908110610a8657634e487b7160e01b600052603260045260246000fd5b90600052602060002090600202016000015414610ab55760405162461bcd60e51b815260040161034e90612ae2565b610ac0823383611cdc565b5050565b3360008181526002602052604081206001015490916001600160a01b0390911614610b015760405162461bcd60e51b815260040161034e90612e1f565b6001600160a01b03808a1660008181526001602052604090205490911614610b3b5760405162461bcd60e51b815260040161034e90612e8d565b610b458933611b11565b610b615760405162461bcd60e51b815260040161034e90612b19565b610b71898989898989898961210a565b7f0c14653fca65d1b22631a36a53bd2a7153579eb0180192d23b52babb69c280508985604051610ba29291906128ec565b60405180910390a150600198975050505050505050565b610bc1612458565b6000546001600160a01b03163314610beb5760405162461bcd60e51b815260040161034e90612f21565b6001600160a01b0380831660008181526002602052604090206001015490911614610c285760405162461bcd60e51b815260040161034e90612db1565b6001600160a01b038216600090815260026020526040908190208151808301909252805482908290610c59906130da565b80601f0160208091040260200160405190810160405280929190818152602001828054610c85906130da565b8015610cd25780601f10610ca757610100808354040283529160200191610cd2565b820191906000526020600020905b815481529060010190602001808311610cb557829003601f168201915b5050509183525050600191909101546001600160a01b031660209091015292915050565b600080546001600160a01b03163314610d215760405162461bcd60e51b815260040161034e90612f21565b6001600160a01b038083166000818152600260205260409020600101549091161415610d5f5760405162461bcd60e51b815260040161034e90612caf565b6040805180820182528481526001600160a01b03841660208083018290526000918252600281529290208151805192939192610d9e9284920190612470565b50602091820151600191820180546001600160a01b039283166001600160a01b03199182161790915590851660008181526003909452604080852080549093169091178255910191909155517f19cb05bcb9f3a5aa3801619041099231656235762a3599eed02cdcac38facd1c90610e199085908590612a23565b60405180910390a15060015b92915050565b3360008181526002602052604081206001015490916001600160a01b0390911614610e685760405162461bcd60e51b815260040161034e90612e1f565b886001600160a01b03167ff463194c0b04e5a5788f729bc96c1bc12c95fcac4bb0ec2e013b93561776e1dc85604051610ea191906129ac565b60405180910390a26001600160a01b03808a166000818152600160205260409020549091161415610ee45760405162461bcd60e51b815260040161034e90612ce6565b610ef4898989898989898961210a565b610efd89610ffc565b507f1d22f26dee56193a2da8b325a26e02b936d68be9f49c0a6f92534464aa8f2ecf8985604051610ba29291906128ec565b600080546001600160a01b03163314610f5a5760405162461bcd60e51b815260040161034e90612f21565b6001600160a01b0380831660008181526002602052604090206001015490911614610f975760405162461bcd60e51b815260040161034e90612db1565b6001600160a01b038216600090815260026020526040812090610fba82826124f4565b5060010180546001600160a01b03191690556040517f4630061df51c52d44a3987b904c6ff220da2cbdeff03ce8750cd14652cae0c6c906103b89084906128be565b3360008181526002602052604081206001015490916001600160a01b03909116146110395760405162461bcd60e51b815260040161034e90612e1f565b6001600160a01b03808316600081815260016020526040902054909116146110735760405162461bcd60e51b815260040161034e90612c41565b61107d8233611b11565b1561109a5760405162461bcd60e51b815260040161034e90612e56565b6110a382612275565b156110c05760405162461bcd60e51b815260040161034e90612d1d565b336000818152600360208181526040808420815180830183526001808301805483526001600160a01b038b8116848801818152600296870180548087018255908c52898c2096519088029096019586555194840180549583166001600160a01b03199687161790558952600487528589208651808801909752888852825487528688018b815281548086018355918b52888b2097519190960290960195865593519490910180549490931693909116929092179055938352528154919061118683613115565b90915550503360009081526003602052604090206001908101547f218ec21215c511260c909dd233fc0cb1190ef18c6eba8027742533695f40eaad916111cb916130ac565b338460006040516103b89493929190613085565b60606111e9611953565b6112055760405162461bcd60e51b815260040161034e90612c0a565b3360009081526004602052604081205467ffffffffffffffff81111561123b57634e487b7160e01b600052604160045260246000fd5b60405190808252806020026020018201604052801561127457816020015b611261612533565b8152602001906001900390816112595790505b5090506000805b33600090815260046020526040902054811015611342573360009081526004602052604090208054829081106112c157634e487b7160e01b600052603260045260246000fd5b60009182526020918290206040805180820190915260029092020180548252600101546001600160a01b031691810191909152835184908490811061131657634e487b7160e01b600052603260045260246000fd5b6020026020010181905250818061132c90613115565b925050808061133a90613115565b91505061127b565b509091505090565b61135261254a565b61135a611953565b6113765760405162461bcd60e51b815260040161034e90612c0a565b336000908152600160208181526040928390208351610120810190945280546001600160a01b031684529182018054918401916113b2906130da565b80601f01602080910402602001604051908101604052809291908181526020018280546113de906130da565b801561142b5780601f106114005761010080835404028352916020019161142b565b820191906000526020600020905b81548152906001019060200180831161140e57829003601f168201915b50505050508152602001600282018054611444906130da565b80601f0160208091040260200160405190810160405280929190818152602001828054611470906130da565b80156114bd5780601f10611492576101008083540402835291602001916114bd565b820191906000526020600020905b8154815290600101906020018083116114a057829003601f168201915b505050505081526020016003820180546114d6906130da565b80601f0160208091040260200160405190810160405280929190818152602001828054611502906130da565b801561154f5780601f106115245761010080835404028352916020019161154f565b820191906000526020600020905b81548152906001019060200180831161153257829003601f168201915b50505050508152602001600482018054611568906130da565b80601f0160208091040260200160405190810160405280929190818152602001828054611594906130da565b80156115e15780601f106115b6576101008083540402835291602001916115e1565b820191906000526020600020905b8154815290600101906020018083116115c457829003601f168201915b5050505050815260200160058201548152602001600682015481526020016007820180548060200260200160405190810160405280929190818152602001828054801561165757602002820191906000526020600020905b81546001600160a01b03168152600190910190602001808311611639575b50505091835250506008919091015460ff161515602090910152905090565b600080546001600160a01b031633141561084f57506001610777565b60006060806060806000806116a78833611b11565b6116c35760405162461bcd60e51b815260040161034e90612bd3565b6001600160a01b0388166000908152600160208190526040909120600881015460058201546006830154938301805460ff90931694909360028101936003820193600490920192908690611716906130da565b80601f0160208091040260200160405190810160405280929190818152602001828054611742906130da565b801561178f5780601f106117645761010080835404028352916020019161178f565b820191906000526020600020905b81548152906001019060200180831161177257829003601f168201915b505050505095508480546117a2906130da565b80601f01602080910402602001604051908101604052809291908181526020018280546117ce906130da565b801561181b5780601f106117f05761010080835404028352916020019161181b565b820191906000526020600020905b8154815290600101906020018083116117fe57829003601f168201915b5050505050945083805461182e906130da565b80601f016020809104026020016040519081016040528092919081815260200182805461185a906130da565b80156118a75780601f1061187c576101008083540402835291602001916118a7565b820191906000526020600020905b81548152906001019060200180831161188a57829003601f168201915b505050505093508280546118ba906130da565b80601f01602080910402602001604051908101604052809291908181526020018280546118e6906130da565b80156119335780601f1061190857610100808354040283529160200191611933565b820191906000526020600020905b81548152906001019060200180831161191657829003601f168201915b505050505092509650965096509650965096509650919395979092949650565b3360008181526001602052604081205490916001600160a01b03909116141561084f57506001610777565b336000818152600260205260409020600101546060916001600160a01b03909116146119bc5760405162461bcd60e51b815260040161034e90612e1f565b3360009081526003602052604081206001015467ffffffffffffffff8111156119f557634e487b7160e01b600052604160045260246000fd5b604051908082528060200260200182016040528015611a2e57816020015b611a1b612533565b815260200190600190039081611a135790505b5090506000805b3360009081526003602052604090206001015481101561134257336000908152600360205260409020600201805482908110611a8157634e487b7160e01b600052603260045260246000fd5b60009182526020918290206040805180820190915260029092020180548252600101546001600160a01b0316918101919091528351849084908110611ad657634e487b7160e01b600052603260045260246000fd5b60200260200101819052508180611aec90613115565b9250508080611afa90613115565b915050611a35565b6000546001600160a01b031681565b6000805b6001600160a01b038416600090815260016020526040902060070154811015611baf576001600160a01b03848116600090815260016020526040902060070180549185169183908110611b7857634e487b7160e01b600052603260045260246000fd5b6000918252602090912001546001600160a01b03161415611b9d576001915050610e25565b80611ba781613115565b915050611b15565b5060009392505050565b6000611bc58383612319565b6001600160a01b0384166000908152600160208190526040909120600701805492935091611bf391906130ac565b81548110611c1157634e487b7160e01b600052603260045260246000fd5b60009182526020808320909101546001600160a01b03868116845260019092526040909220600701805491909216919083908110611c5f57634e487b7160e01b600052603260045260246000fd5b600091825260208083209190910180546001600160a01b0319166001600160a01b039485161790559185168152600190915260409020600701805480611cb557634e487b7160e01b600052603160045260246000fd5b600082815260209020810160001990810180546001600160a01b0319169055019055505050565b6000611ce883836123bb565b6001600160a01b0383166000908152600360205260409020600201805491925090611d15906001906130ac565b81548110611d3357634e487b7160e01b600052603260045260246000fd5b906000526020600020906002020160036000846001600160a01b03166001600160a01b031681526020019081526020016000206002018581548110611d8857634e487b7160e01b600052603260045260246000fd5b6000918252602080832084546002938402909101908155600194850154940180546001600160a01b0319166001600160a01b03958616179055928516825260039092526040902001805480611ded57634e487b7160e01b600052603160045260246000fd5b60008281526020808220600260001990940193840201828155600190810180546001600160a01b0319169055929093556001600160a01b03861681526004909252604090912080549091611e40916130ac565b81548110611e5e57634e487b7160e01b600052603260045260246000fd5b906000526020600020906002020160046000856001600160a01b03166001600160a01b031681526020019081526020016000206000018281548110611eb357634e487b7160e01b600052603260045260246000fd5b6000918252602080832084546002909302019182556001938401549390910180546001600160a01b0319166001600160a01b039485161790559185168152600490915260409020805480611f1757634e487b7160e01b600052603160045260246000fd5b60008281526020808220600260001990940184810290910183815560010180546001600160a01b03191690559093553381526003909252604090912001548414801590611f7f57506001600160a01b0382166000908152600360205260409020600190810154115b1561209f576001600160a01b0382166000908152600360205260409020600201805485919082908110611fc257634e487b7160e01b600052603260045260246000fd5b60009182526020808320600292830201939093556001600160a01b038516825260039092526040812090910180548690811061200e57634e487b7160e01b600052603260045260246000fd5b60009182526020808320600160029093020191909101546001600160a01b031680835260049091526040909120549091501561209d5761204e81846123bb565b6001600160a01b0382166000908152600460205260409020805491935086918490811061208b57634e487b7160e01b600052603260045260246000fd5b60009182526020909120600290910201555b505b6001600160a01b03821660009081526003602052604081206001018054916120c6836130c3565b91905055507f5bc31e521401c7e4fbe27cc8e953ddcd66ce6cc84d810d1850450e7964029d9584836040516120fc92919061306e565b60405180910390a150505050565b600087511161211857600080fd5b600086511161212657600080fd5b600084511161213457600080fd5b600085511161214257600080fd5b6001600160a01b038816600081815260016020818152604090922080546001600160a01b0319169093178355895161218093909101918a0190612470565b506001600160a01b038816600090815260016020908152604090912087516121b092600290920191890190612470565b506001600160a01b038816600090815260016020908152604090912086516121e092600390920191880190612470565b506001600160a01b0388166000908152600160209081526040909120855161221092600490920191870190612470565b506001600160a01b0397909716600081815260016020818152604080842060088101805460ff19169815159890981790975560058701959095556006909501999099556004909352912090950180546001600160a01b03191690951790945550505050565b6000805b336000908152600360205260409020600101548110156123105733600090815260036020526040902060020180546001600160a01b0385169190839081106122d157634e487b7160e01b600052603260045260246000fd5b60009182526020909120600160029092020101546001600160a01b031614156122fe5760019150506103c4565b8061230881613115565b915050612279565b50600092915050565b6000805b6001600160a01b0384166000908152600160205260409020600701548110156123b4576001600160a01b0384811660009081526001602052604090206007018054918516918390811061238057634e487b7160e01b600052603260045260246000fd5b6000918252602090912001546001600160a01b031614156123a2579050610e25565b806123ac81613115565b91505061231d565b5092915050565b6000805b6001600160a01b0384166000908152600460205260409020548110156123b4576001600160a01b0384811660009081526004602052604090208054918516918390811061241c57634e487b7160e01b600052603260045260246000fd5b60009182526020909120600160029092020101546001600160a01b03161415612446579050610e25565b8061245081613115565b9150506123bf565b60408051808201909152606081526000602082015290565b82805461247c906130da565b90600052602060002090601f01602090048101928261249e57600085556124e4565b82601f106124b757805160ff19168380011785556124e4565b828001600101855582156124e4579182015b828111156124e45782518255916020019190600101906124c9565b506124f09291506125a1565b5090565b508054612500906130da565b6000825580601f106125125750612530565b601f01602090049060005260206000209081019061253091906125a1565b50565b604080518082019091526000808252602082015290565b60405180610120016040528060006001600160a01b03168152602001606081526020016060815260200160608152602001606081526020016000815260200160008152602001606081526020016000151581525090565b5b808211156124f057600081556001016125a2565b80356001600160a01b03811681146103c457600080fd5b803580151581146103c457600080fd5b600082601f8301126125ed578081fd5b813567ffffffffffffffff8082111561260857612608613146565b604051601f8301601f19168101602001828111828210171561262c5761262c613146565b604052828152848301602001861015612643578384fd5b82602086016020830137918201602001929092529392505050565b60006020828403121561266f578081fd5b612678826125b6565b9392505050565b600080600080600080600080610100898b03121561269b578384fd5b6126a4896125b6565b9750602089013567ffffffffffffffff808211156126c0578586fd5b6126cc8c838d016125dd565b985060408b01359150808211156126e1578586fd5b6126ed8c838d016125dd565b975060608b0135915080821115612702578586fd5b61270e8c838d016125dd565b965060808b0135915080821115612723578586fd5b506127308b828c016125dd565b94505061273f60a08a016125cd565b925060c0890135915060e089013590509295985092959890939650565b6000806040838503121561276e578182fd5b823567ffffffffffffffff811115612784578283fd5b612790858286016125dd565b92505061279f602084016125b6565b90509250929050565b6000602082840312156127b9578081fd5b5035919050565b600080604083850312156127d2578182fd5b8235915061279f602084016125b6565b6000806000606084860312156127f6578283fd5b83359250612806602085016125b6565b9150612814604085016125cd565b90509250925092565b6001600160a01b03169052565b6000815180845260208085019450808401835b838110156128625781516001600160a01b03168752958201959082019060010161283d565b509495945050505050565b15159052565b60008151808452815b818110156128985760208185018101518683018201520161287c565b818111156128a95782602083870101525b50601f01601f19169290920160200192915050565b6001600160a01b0391909116815260200190565b6001600160a01b0392831681529116602082015260400190565b6001600160a01b039290921682521515602082015260400190565b6020808252825182820181905260009190848201906040850190845b818110156129485783516001600160a01b031683529284019291840191600101612923565b50909695505050505050565b602080825282518282018190526000919060409081850190868401855b8281101561299f578151805185528601516001600160a01b0316868501529284019290850190600101612971565b5091979650505050505050565b901515815260200190565b6000881515825260e060208301526129d260e0830189612873565b82810360408401526129e48189612873565b905082810360608401526129f88188612873565b90508281036080840152612a0c8187612873565b60a0840195909552505060c0015295945050505050565b600060408252612a366040830185612873565b90506001600160a01b03831660208301529392505050565b60208082526028908201527f596f7520646f6e74206861766520617574686f7269747920746f207265766f6b60408201527f6520616363657373000000000000000000000000000000000000000000000000606082015260800190565b6020808252600e908201527f55736572206e6f742076616c6964000000000000000000000000000000000000604082015260600190565b60208082526014908201527f5265717565737420646f65736e74206578697374000000000000000000000000604082015260600190565b60208082526021908201527f596f7520646f6e7420686176652061636365737320746f20746869732075736560408201527f7200000000000000000000000000000000000000000000000000000000000000606082015260800190565b6020808252602a908201527f5468697320706172746963756c6172206f7267616e697a6174696f6e7320646f60408201527f65736e7420657869737400000000000000000000000000000000000000000000606082015260800190565b6020808252601e908201527f55736572206861736e7420676976656e20746865697220636f6e73656e740000604082015260600190565b60208082526012908201527f437573746f6d6572206e6f742076616c69640000000000000000000000000000604082015260600190565b60208082526016908201527f437573746f6d657220646f65736e742065786973747300000000000000000000604082015260600190565b60208082526012908201527f5265717565737473206e6f7420666f756e640000000000000000000000000000604082015260600190565b60208082526011908201527f4f726720616c7265616479206164646564000000000000000000000000000000604082015260600190565b60208082526013908201527f5573657220616c72656164792065786973747300000000000000000000000000604082015260600190565b60208082526016908201527f5265717565737420416c72656164792045786973747300000000000000000000604082015260600190565b60208082526026908201527f596f7520646f6e74206861766520617574686f7269747920746f20676976652060408201527f6163636573730000000000000000000000000000000000000000000000000000606082015260800190565b60208082526010908201527f4f726720646f65736e7420657869737400000000000000000000000000000000604082015260600190565b60208082526017908201527f596f7520646f6e74206861766520617574686f72697479000000000000000000604082015260600190565b6020808252600d908201527f4f7267206e6f7420657869737400000000000000000000000000000000000000604082015260600190565b60208082526013908201527f416c726561647920686176652061636365737300000000000000000000000000604082015260600190565b60208082526012908201527f5573657220646f65736e27742065786973740000000000000000000000000000604082015260600190565b60208082526021908201527f596f7520646f6e74206861766520617574686f7269747920746f2064656c657460408201527f6500000000000000000000000000000000000000000000000000000000000000606082015260800190565b6020808252600a908201527f41646d696e206f6e6c7900000000000000000000000000000000000000000000604082015260600190565b600060208252612f6c60208301845161281d565b6020830151610120806040850152612f88610140850183612873565b91506040850151601f1980868503016060870152612fa68483612873565b93506060870151915080868503016080870152612fc38483612873565b935060808701519150808685030160a0870152612fe08483612873565b935060a087015160c087015260c087015160e087015260e08701519150610100818786030181880152613013858461282a565b945080880151925050506130298286018261286d565b5090949350505050565b60006020825282516040602084015261304f6060840182612873565b90506001600160a01b0360208501511660408401528091505092915050565b9182526001600160a01b0316602082015260400190565b9384526001600160a01b039283166020850152911660408301521515606082015260800190565b6000828210156130be576130be613130565b500390565b6000816130d2576130d2613130565b506000190190565b6002810460018216806130ee57607f821691505b6020821081141561310f57634e487b7160e01b600052602260045260246000fd5b50919050565b600060001982141561312957613129613130565b5060010190565b634e487b7160e01b600052601160045260246000fd5b634e487b7160e01b600052604160045260246000fdfea2646970667358221220a8c6805f33563c05b6566d1c5df04cc665ad7f0211d5e9fc47c309635a17da1f64736f6c63430008000033",
  "immutableReferences": {},
  "source": "// SPDX-License-Identifier: MIT\npragma solidity >=0.4.22 <0.9.0;\n\ncontract Kyc {\n  address public admin;\n  struct Customer {\n      address custAddress;\n      string jsonHash;\n      string photoHash;\n      string citizenship_front_hash;\n      string citizenship_back_hash;\n      uint d;\n      uint n;\n      address[] organization;\n      bool kycStatus;\n  }\n\n  struct Organization {\n      string name;\n      address ethAddress;\n  }\n\n  struct kycRequest{\n      address ethAddress;\n      uint req_count;\n      kycRequestList[] kycrequestlist;\n  }\n  \n  struct kycRequestList{\n      uint req_count;\n      address Address;\n  }\n  \n  struct kycRequestCust{\n      kycRequestList[] kycrequestlist;\n      address custAddress;\n  }\n\n  constructor()  {\n      admin = msg.sender;\n  }\n\n  mapping(address => Customer) customers;\n  mapping(address => Organization) organizations;\n  mapping(address => kycRequest) kycrequestsbyorg;\n  mapping(address => kycRequestCust) kycrequestsbycust;\n\n  event orgAdded(string name,address ethAddress);\n  event orgRemoved(address ethAddress);\n  event customerAdded(address custAddress,bool kycStatus);\n  event customerUpdated(address custAddress,bool kycStatus);\n  event requestAdded(uint reqid,address ethAddress, address custAddress,bool isAllowed);\n  event requestRemoved(uint reqid,address ethAddress);\n  event accessGiven(uint reqid,address custAddress,address ethAddress,bool isAllowed);\n  event accessRevoked(address custAddress,address ethAddress);\n  event kycRemoved(address custAddress,address ethAddress);\n  event KYCRegistered(address indexed customerAddress,bool kycStatus);\n\n\n// Checks whether the requestor is admin\n  modifier isAdmin {\n      require(\n          admin == msg.sender,\n          \"Admin only\"\n      );\n      _;\n  }\n\n// Checks wheter the org exists or not\n  modifier isOrgValid {\n      require(\n          organizations[msg.sender].ethAddress == msg.sender,\n          \"Org not exist\"    \n      );\n      _;\n  }\n\n//Check if Org has access to the user KYC\n  function findOrg(address _custaddress,address ethAddress) internal view returns(bool){\n      uint i = 0;\n          for(i;i<customers[_custaddress].organization.length;i++){\n              if(customers[_custaddress].organization[i]==ethAddress){\n                  return true;\n              }\n          }\n          return false;\n  }\n\n//Find the index of Org in KYC.organization array\n  function findOrgIndex(address _custaddress,address ethAddress) internal view returns(uint){\n      uint i = 0;\n      for(i;i<customers[_custaddress].organization.length;i++){\n            if(customers[_custaddress].organization[i]==ethAddress){\n                return i;\n            }\n    }\n  }\n  \n  function findRequestIndex(address _custaddress,address _ethAddress) internal view returns(uint){\n      uint i = 0;\n      for(i;i<kycrequestsbycust[_custaddress].kycrequestlist.length;i++){\n            if(kycrequestsbycust[_custaddress].kycrequestlist[i].Address==_ethAddress){\n                return i;\n            }\n    }\n  }\n\n//Check if request exist \n  function findRequest(address _custaddress) internal view returns(bool){\n      uint i=0;\n      for(i;i<kycrequestsbyorg[msg.sender].req_count;i++){\n          if(kycrequestsbyorg[msg.sender].kycrequestlist[i].Address==_custaddress){\n              return true;\n          }\n      }\n      return false;\n  }\n\n//Add organization ONLY BY ADMIN\n  function addOrg(string memory _name,address _ethAddress) public isAdmin returns(bool) {\n      require(organizations[_ethAddress].ethAddress!=_ethAddress,\"Org already added\");\n      organizations[_ethAddress]=Organization(_name,_ethAddress);\n      kycrequestsbyorg[_ethAddress].ethAddress=_ethAddress;\n      kycrequestsbyorg[_ethAddress].req_count=0;\n      emit orgAdded(_name,_ethAddress);\n      return true;\n  }\n\n//Remove Organization ONLY BY ADMIN \n  function removeOrg(address _ethAddress) public isAdmin returns(bool) {\n      require(organizations[_ethAddress].ethAddress==_ethAddress,\"Org doesnt exist\");\n      delete organizations[_ethAddress];\n      emit orgRemoved(_ethAddress);\n      return true;\n  }\n\n//Return Organization Info if it exists  \n  function viewOrg(address _ethAddress)public isAdmin view returns(Organization memory){\n      require(organizations[_ethAddress].ethAddress==_ethAddress,\"Org doesnt exist\");\n      return organizations[_ethAddress];\n  }\n\n  function getYourOrgDetail() public isOrgValid view returns(Organization memory){\n    return organizations[msg.sender];\n  }\n\n  function validOrg() public view returns(bool){\n    if(organizations[msg.sender].ethAddress==msg.sender){\n      return true;\n    }\n    else{\n      return false;\n    }\n  }\n  function validAdmin() public view returns(bool){\n    if(admin==msg.sender){\n      return true;\n    }\n    else{\n      return false;\n    }\n  }\n  function validCust() public view returns(bool){\n    if(customers[msg.sender].custAddress==msg.sender){\n      return true;\n    }\n    else{\n      return false;\n    }\n  }\n\n  function writeKYC(\n    address _custaddress,\n    string memory _jsonHash,\n    string memory _photohash,\n    string memory _citizenship_front_hash,\n    string memory _citizenship_back_hash,\n    bool _kycStatus,\n    uint _d,\n    uint _n) internal {\n      require(bytes(_jsonHash).length > 0);\n      require(bytes(_photohash).length > 0);\n      require(bytes(_citizenship_back_hash).length > 0);\n      require(bytes(_citizenship_front_hash).length > 0);\n      customers[_custaddress].custAddress=_custaddress;\n      customers[_custaddress].jsonHash=_jsonHash;\n      customers[_custaddress].photoHash=_photohash;\n      customers[_custaddress].citizenship_front_hash=_citizenship_front_hash;\n      customers[_custaddress].citizenship_back_hash=_citizenship_back_hash;\n      customers[_custaddress].kycStatus=_kycStatus;\n      customers[_custaddress].d=_d;\n      customers[_custaddress].n=_n;\n      kycrequestsbycust[_custaddress].custAddress=_custaddress;\n  }\n\n//Register User KYC by registered Orgs\n  function registerKYC(\n    address _custaddress,\n    string memory _jsonHash,\n    string memory _photohash,\n    string memory _citizenship_front_hash,\n    string memory _citizenship_back_hash,\n    bool _kycStatus,\n    uint _d,\n    uint _n) public isOrgValid returns(bool){\n     emit KYCRegistered(_custaddress, _kycStatus);\n      require(customers[_custaddress].custAddress!=_custaddress,\"User already exists\");\n      writeKYC(_custaddress,_jsonHash,_photohash,_citizenship_front_hash,_citizenship_back_hash,_kycStatus,_d,_n);\n      requestKYC(_custaddress);\n      emit customerAdded(_custaddress,_kycStatus);\n      return true;\n  }\n\n//View User KYC by Authorized Orgs  \n  function viewKYC(address _custaddress) public view \n  returns(\n    bool,\n    string memory,\n    string memory,\n    string memory,\n    string memory,\n    uint,\n    uint)\n  {\n      require(findOrg(_custaddress,msg.sender),\"User hasnt given their consent\");\n      return(customers[_custaddress].kycStatus,customers[_custaddress].jsonHash,customers[_custaddress].photoHash,customers[_custaddress].citizenship_front_hash,customers[_custaddress].citizenship_back_hash,customers[_custaddress].d,customers[_custaddress].n);\n  }\n  \n  function viewYourKYC() public view returns(Customer memory){\n      require(validCust(),'Customer not valid');\n      return customers[msg.sender];\n  }\n\n  function viewOrgWithAccess() public view returns(address[] memory){\n      require(customers[msg.sender].custAddress==msg.sender,\"You dont have authority\");\n      return customers[msg.sender].organization;\n  }\n  \n  \n  function viewRequestCust() public view returns(kycRequestList[] memory){\n      require(validCust(),'Customer not valid');\n      kycRequestList[] memory ret =  new kycRequestList[](kycrequestsbycust[msg.sender].kycrequestlist.length);\n      uint j = 0;\n        for (uint i = 0; i < kycrequestsbycust[msg.sender].kycrequestlist.length; i++) {\n            ret[j] = kycrequestsbycust[msg.sender].kycrequestlist[i];\n            j++;\n                \n        }\n    return (ret);\n  }\n\n//Update User KYC by registered and authorized orgs\n  function updateKYC(\n    address _custaddress,\n    string memory _jsonHash,\n    string memory _photohash,\n    string memory _citizenship_front_hash,\n    string memory _citizenship_back_hash,\n    bool _kycStatus,\n    uint _d,\n    uint _n) public isOrgValid returns(bool){\n      require(customers[_custaddress].custAddress==_custaddress,\"User doesn't exist\");\n      require(findOrg(_custaddress,msg.sender),\"You dont have access to this user\");\n      writeKYC(_custaddress,_jsonHash,_photohash,_citizenship_front_hash,_citizenship_back_hash,_kycStatus,_d,_n);\n      emit customerUpdated(_custaddress,_kycStatus);\n      return true;\n  }\n\n//Request User KYC by Orgs  \n  function requestKYC(address _custaddress) public isOrgValid returns(bool){\n      require(customers[_custaddress].custAddress==_custaddress,\"Customer doesnt exists\");\n      require(findOrg(_custaddress,msg.sender)==false,\"Already have access\");\n      require(findRequest(_custaddress)==false,\"Request Already Exists\");\n      kycrequestsbyorg[msg.sender].kycrequestlist.push(kycRequestList(kycrequestsbyorg[msg.sender].req_count,_custaddress));\n      kycrequestsbycust[_custaddress].kycrequestlist.push(kycRequestList(kycrequestsbyorg[msg.sender].req_count,msg.sender));\n      kycrequestsbyorg[msg.sender].req_count++;\n      emit requestAdded(kycrequestsbyorg[msg.sender].req_count-1,msg.sender,_custaddress,false);\n      return true;\n  }\n  \n  function deleteRequest(uint _reqcount,address _custaddress,address _ethAddress) internal{\n    uint index = findRequestIndex(_custaddress,_ethAddress);\n    kycrequestsbyorg[_ethAddress].kycrequestlist[_reqcount]=kycrequestsbyorg[_ethAddress].kycrequestlist[kycrequestsbyorg[_ethAddress].kycrequestlist.length-1];\n    kycrequestsbyorg[_ethAddress].kycrequestlist.pop();\n    kycrequestsbycust[_custaddress].kycrequestlist[index]=kycrequestsbycust[_custaddress].kycrequestlist[kycrequestsbycust[_custaddress].kycrequestlist.length-1];\n    kycrequestsbycust[_custaddress].kycrequestlist.pop();\n    if(kycrequestsbyorg[msg.sender].kycrequestlist.length!=_reqcount && kycrequestsbyorg[_ethAddress].req_count>1){\n        kycrequestsbyorg[_ethAddress].kycrequestlist[_reqcount].req_count=_reqcount;\n        address add = kycrequestsbyorg[_ethAddress].kycrequestlist[_reqcount].Address;\n        if(kycrequestsbycust[add].kycrequestlist.length>0){\n            index = findRequestIndex(add, _ethAddress);\n            kycrequestsbycust[add].kycrequestlist[index].req_count=_reqcount;\n        }\n        \n     }\n    kycrequestsbyorg[_ethAddress].req_count--;\n    emit requestRemoved(_reqcount,_ethAddress);\n  }\n\n//Delete User KYC request by organization\n  function deleteRequestOrg(uint _reqcount) public isOrgValid returns(bool){\n    require(kycrequestsbyorg[msg.sender].ethAddress==msg.sender,\"You dont have authority to delete\");\n    require(kycrequestsbyorg[msg.sender].kycrequestlist[_reqcount].req_count==_reqcount,\"Request doesnt exist\");\n    address _custaddress = kycrequestsbyorg[msg.sender].kycrequestlist[_reqcount].Address;\n    deleteRequest(_reqcount,_custaddress,msg.sender);\n    return true;\n  }\n\n//Delete User KYC Request after user provides access \n  function deleteRequestCust(uint _reqcount,address _ethAddress) public{\n      require(organizations[_ethAddress].ethAddress==_ethAddress,\"This particular organizations doesnt exist\");\n      require(kycrequestsbyorg[_ethAddress].kycrequestlist[_reqcount].Address==msg.sender,\"User not valid\");\n      require(kycrequestsbyorg[_ethAddress].kycrequestlist[_reqcount].req_count==_reqcount,\"Request doesnt exist\");\n      deleteRequest(_reqcount,msg.sender,_ethAddress);\n  }\n\n\n\n//Return Array of all pending request of the orgs\n  function listRequest() public isOrgValid view returns(kycRequestList[] memory){\n      kycRequestList[] memory ret =  new kycRequestList[](kycrequestsbyorg[msg.sender].req_count);\n      uint j = 0;\n        for (uint i = 0; i < kycrequestsbyorg[msg.sender].req_count; i++) {\n            ret[j] = kycrequestsbyorg[msg.sender].kycrequestlist[i];\n            j++;\n                \n        }\n    return (ret);\n  }\n\n//Give User KYC access to Org\n  function giveAccessKYC(uint _reqcount,address _ethAddress,bool _isAllowed) public returns(bool){\n      require(customers[msg.sender].custAddress==msg.sender,\"You dont have authority to give access\");\n      require(kycrequestsbyorg[_ethAddress].kycrequestlist[_reqcount].Address==msg.sender,\"User not valid\");\n      require(kycrequestsbyorg[_ethAddress].kycrequestlist[_reqcount].req_count==_reqcount,\"Requests not found\");\n      if(_isAllowed == true){\n          if(findOrg(msg.sender,_ethAddress) == false){\n              customers[msg.sender].organization.push(_ethAddress);\n          }\n          deleteRequestCust(_reqcount,_ethAddress);\n          emit accessGiven(_reqcount,msg.sender,_ethAddress,_isAllowed);\n      }\n      else{\n          deleteRequestCust(_reqcount,_ethAddress);\n      }\n      return true;\n      \n  }\n  \n  function remove(address _custaddress,address _ethAddress) internal {\n      uint i=findOrgIndex(_custaddress,_ethAddress);\n      customers[_custaddress].organization[i]=customers[_custaddress].organization[customers[_custaddress].organization.length-1];\n      customers[_custaddress].organization.pop();\n  }\n\n//Revoke User KYC access of Orgs\n  function revokeAccessKYC(address _ethAddress) public returns(bool){\n      require(customers[msg.sender].custAddress==msg.sender,\"You dont have authority to revoke access\");\n      require(findOrg(msg.sender,_ethAddress),\"You dont have access to this user\");\n      remove(msg.sender,_ethAddress);\n      emit accessRevoked(msg.sender,_ethAddress);\n      return true;\n  }\n\n//Remove User KYC by Orgs  \n  function removeKYC(address _custaddress) public isOrgValid returns (bool){\n      require(customers[_custaddress].custAddress==_custaddress,\"User doesn't exist\");\n      require(findOrg(_custaddress,msg.sender),\"You dont have access to this user\");\n      remove(_custaddress,msg.sender);\n      emit kycRemoved(_custaddress,msg.sender);\n      return true;\n  }\n  \n}\n",
  "sourcePath": "E:\\FinalProject\\blockchainKYC\\contracts\\Kyc.sol",
  "compiler": {
    "name": "solc",
    "version": "0.8.0+commit.c7dfd78e.Emscripten.clang"
  },
  "schemaVersion": "3.4.13",
  "updatedAt": "2023-07-03T02:43:20.342Z",
  "networkType": "ethereum",
  "devdoc": {
    "kind": "dev",
    "methods": {},
    "version": 1
  },
  "userdoc": {
    "kind": "user",
    "methods": {},
    "version": 1
  }
}